:020000040800F2
:1000000018140020C10100085D0300085503000812
:1000100059030008D9020008650500080000000027
:100020000000000000000000000000006503000860
:1000300005030008000000006103000869030008D0
:10004000DB010008DB010008DB010008DB01000820
:10005000DB010008DB01000809030008DB010008E0
:10006000DB010008DB010008DB010008DB01000800
:10007000DB010008DB010008DB010008DB010008F0
:10008000DB010008DB010008DB010008DB010008E0
:10009000DB010008DB010008DB010008DB010008D0
:1000A000DB010008DB010008DB010008DB010008C0
:1000B000DB010008DB010008DB010008DB010008B0
:1000C000DB010008DB010008DB010008DB010008A0
:1000D000DB010008FD040008DB010008DB0100086B
:1000E000DB010008DB010008DB010008DB01000880
:1000F000DB010008DB010008DB010008DB01000870
:10010000DB010008DB010008DB010008DB0100085F
:10011000DB010008DB010008CD040008DB0100085A
:10012000DB010008DB010008DD020008DB0100083C
:10013000DB010008DB010008DB010008DB0100082F
:10014000DB010008DB010008DB010008DB0100081F
:10015000DB010008DB010008DB010008DB0100080F
:10016000DB010008DB010008DB010008DB010008FF
:10017000DB010008DB010008DB01000800000000D3
:10018000DB010008DB010008DB010008DB010008DF
:10019000DB010008DB010008DB01000800000000B3
:1001A000DB010008DB010008DB010008DFF80CD0F0
:1001B00000F06AF800480047BD0B00081814002042
:1001C0000648804706480047FEE7FEE7FEE7FEE7F1
:1001D000FEE7FEE7FEE7FEE7FEE7FEE76D03000849
:1001E000AD010008D2B201E000F8012B491EFBD29C
:1001F00070470022F6E710B513460A460446194632
:10020000FFF7F0FF204610BD2DE9F05F0546002006
:1002100092469B4688460646814640241BE0284677
:1002200041464746224600F047F853465A46C01A10
:10023000914110D311461846224600F016F82D1AA7
:1002400067EB01084F4622460120002100F00DF81F
:1002500017EB00094E41201EA4F10104DFDC4846E3
:1002600031462A464346BDE8F09F202A04DB203A67
:1002700000FA02F1002070479140C2F1200320FAF9
:1002800003F31943904070471CB509480090094892
:1002900001900546009C06E0E06840F0010394E808
:1002A000070098471034AC42F6D3FFF783FF0000F5
:1002B000481B0008681B0008202A04DB203A21FAAA
:1002C00002F00021704721FA02F3D040C2F120026F
:1002D0009140084319467047FEE7000010B546F20A
:1002E0000044C4F2020420460221202200F03CFA1D
:1002F000012818BF10BD204602212022BDE8104071
:1003000000F016BAFEE7000010B5012000F06CFB0B
:10031000012818BF10BD0024C4F2020420460121A8
:1003200000F0B8FB012809D104F54060802100F0FD
:10033000AFFB41F63A30C0F6000003E041F62C3046
:10034000C0F6000001F0DCFB0120BDE8104000F029
:1003500045BB0000FEE70000FEE70000FEE70000EE
:10036000FEE70000FEE7000000F03CB981B04EF669
:100370008851CEF200010A6843F6080042F4700288
:10038000C4F202000A6050F8081C41F0010140F874
:10039000081C00BF50F8081C8907FBD5016841F014
:1003A0008001016000210091009A4F2A06D800BF09
:1003B000009A01320092009A502AF9D3026842F062
:1003C00090020260009100994F2905D800990131EF
:1003D000009100995029F9D301684FF6FF7221F07E
:1003E0000301016050F8081CCFF6F662114040F896
:1003F000081C50F8081C4FF0000C21F4802140F834
:10040000081CC0F800C0026843F21002C2F20042A9
:1004100040F8042CC0F804C050F8082C42F4803294
:1004200040F8082C4FF6FE7250F8081C013A4CF1C7
:100430000003890302D4002BF6D100BF50F8081C3A
:100440008903FBD5826B47F2000142F08052C4F26F
:10045000000182630A6842F440420A600268026056
:10046000026842F400420260026842F4A052026054
:1004700047F61902C0F6402240F8042C50F8082C28
:1004800042F0807240F8082C50F8082C9201FBD5FD
:100490000A6842F480320A604A68D203FCD50A68CE
:1004A00042F400320A6000BF4A689203FCD501683A
:1004B00021F003010160016841F00201016000BF09
:1004C00001680907FCD501B07047000010B541F282
:1004D0000004C4F200042046012100F0F9FF0128C5
:1004E00018BF10BD2046012100F0EEFF04F5FE30DC
:1004F0008021BDE8104000F0CBBA0000B0B541F259
:100500000004C4F2010440F20431C0F204012046A8
:1005100001F040F9012818BFB0BD204601F044F8B1
:1005200004F5AA342046022100F0FAF941F20E0542
:10053000C0F58050C2F2000528802046022100F05C
:100540005DF800F07BF8288840F20C01C2F200014F
:1005500000220A5441F20C00C2F200000121017095
:10056000B0BD0000FEE7000070B584B0064641F261
:1005700004000D4600F0BCFC4FF0807000F0E8FC79
:1005800041F20004C4F20004204600F099FE701EFF
:10059000ADF800000020691ECDF802000291ADF810
:1005A00006008DF80C006946204600F033FF362027
:1005B0000321022200F056FB2046012100F080FFBB
:1005C000204600F021FF04B070BD00004FF47A71A6
:1005D000414340F20800C2F20000016001680029B6
:1005E000FCD1704740F20800C2F200000168002907
:1005F00008BF7047016801390160704701EB410194
:1006000000EBC100016921F00101016170470000A8
:1006100001EB410100EBC100016941F00101016101
:100620007047000001EB410100EBC100016921F0BE
:10063000606141EA426101617047000010B58AB013
:1006400040F6164000F054FC46F20044C4F20204A6
:100650002046022100F036F8A4F5A83040F20C0143
:10066000A0F57F70C2F200010190012003910021EA
:100670000290CDE906014FF4805008904FF44030CD
:10068000CDE90411099001AA2046022100F004F9E5
:10069000204602210422FFF7C5FF20460221FFF772
:1006A000B7FF20460221102200F034F83A20022140
:1006B000012200F0D7FAA4F5AA30402100F0E0FFB3
:1006C0000AB010BD01EB410200EBC20213694FF00A
:1006D0003D0C23F001031361002313615361936107
:1006E000D3611362212353620A1F28BFD1B201EBE9
:1006F000410301F002014FF00C024FEA410138BF03
:10070000082201EB430113580CFA01F1194311506F
:1007100070470000102301EB4101802A08BF242309
:10072000184450F831301A4340F831207047000027
:100730000B1F38BF0B46D9B24FEA410151FA83F182
:1007400003F002034FF00C0C4FEA430338BF4FF0A5
:10075000080C03EB41015CF8003002FA01F1194387
:100760004CF8001070470000F0B5032921D8561E40
:100770001F2E4FF0000300F28C804FF0800C2424D9
:100780008E460546DFE806F06C8585108585853A3E
:10079000858585858585854185858585858585854D
:1007A00085858585858585484FF0020C10240422B7
:1007B00028E0561E1F2E4FF0000300F26A800FF251
:1007C0000C0202EB86070A1FDFE806F01063632BBA
:1007D00063636333636363636363633B6363636341
:1007E000636363636363636363636343051D5FFA0A
:1007F00082FE4FF0800C2424012231E04FF0040CE3
:10080000102408228E4605462AE04FF0080C1022DC
:100810008E460546102423E0102420228E460546ED
:100820001CE0051D5FFA82FE4FF0020C102404222A
:1008300016E0051D5FFA82FE4FF0040C102408221A
:100840000EE0051D5FFA82FE4FF0080C1022102406
:1008500006E0051D5FFA82FE102420224FF0100CE6
:100860000EF002072B680EEB4E057F00204401EBD3
:10087000410107EB450750F83100BA4013EA020185
:1008800000EA0C0018BF0121002818BF012001EA6E
:1008900000031846F0BD000080B501EB410100EBFC
:1008A000C100416A48F23F7321F0040141621168BE
:1008B000CFF6FC7381619168C161D16941610169C1
:1008C000D2F818E001EA030C116A136941EA0C013D
:1008D00041EA830141EA0E0119430161516801298E
:1008E00007D00029016914BF41F4004141F40071AF
:1008F00002E0016921F400710161D16803690029F6
:1009000023F4806308BF03F58063036151690269C2
:10091000002922F4807208BF02F58072026180BD56
:1009200001EB410100EBC1004069704743F6084C00
:10093000C4F2010C5CF8083C012923EA00034CF8DE
:10094000083C5CF8043C23EA00034CF8043CDCF867
:10095000003023EA0003CCF80030DCF8043023EA4E
:100960000003CCF8043019D021B95CF8081C01430D
:100970004CF8081C022A18D0012A6FEA000118D08E
:10098000002A18BF7047DCF800201043CCF80000A4
:10099000DCF804000840CCF8040070475CF8041C44
:1009A00001434CF8041C022AE6D1DCF80010014394
:1009B00002E0DCF800201140CCF80010DCF8041054
:1009C0000843CCF80400704743F60041C4F201012B
:1009D0000A6822EA000008607047000043F61441EC
:1009E000C4F201010860704743F61441C4F20101EA
:1009F0000968084018BF012070470000B0B541F2F7
:100A00000005C4F201050446C1B2284600F0D0FD3D
:100A10002846072100F044FE0028F9D02046B0BD4A
:100A2000F0B5D0F820E0D0F824C000230F2700252F
:100A300005E000BF0135082D03F104030CD022FAB4
:100A400005F6F607F6D007FA03F62EEA060601FACF
:100A500003F446EA040EEDE7082300240F2504E022
:100A60000133102B04F104040CD022FA03F6F6072C
:100A7000F6D005FA04F62CEA060701FA04F647EA6E
:100A8000060CEDE7C0F820E0C0F824C0F0BD00007F
:100A9000C16270470069084018BF0120704700001C
:100AA0002DE9F041D0F800E0D0F80CC000244FF060
:100AB0000308002605E000BF0136102E04F10204F1
:100AC00012D023FA06F7FF07F6D008FA04F72EEA49
:100AD000070E01FA04F54EEA050E2CEA070702FAA2
:100AE00004F547EA050CE7E7C0F800E0C0F80CC0E1
:100AF000BDE8F0810129416814BF99431943416061
:100B0000B0B5D0F808C000214FF0030E002404E077
:100B10000134102C01F102010CD023FA04F5ED0789
:100B2000F6D00EFA01F52CEA050C02FA01F54CEAB2
:100B3000050CEDE7C0F808C0B0BD000080B54FF46B
:100B4000406000F0D5F941F20E1000F0D1F900201C
:100B5000C4F20200002102220123FFF7A1FF0620B8
:100B60000321032200F07EF80020002100F002FAA9
:100B7000012000210222FFF7D9FE0120FFF724FF08
:100B80000120BDE88040FFF729BF000010B540F606
:100B9000034000F0ADF940F60044C4F202042046E0
:100BA000012100228023FFF77BFF20460021022243
:100BB0008023BDE81040FFF79DBF00004FF4A06008
:100BC00000F0A2F800F018FAFFF7E0FF4FF416501B
:100BD00000F06EFDFFF7B2FF44F6206042F21071A4
:100BE000FFF7C2FCC82042F2107100F0C3F8FFF713
:100BF00025FD41F20C0741F20E0540F20C06C2F24F
:100C000000070024C2F200050FF230080FF240097D
:100C1000C2F2000600F082F838780028FAD029885D
:100C200040463C7000F0ECFD4846314600F0E8FDDF
:100C300029883046FFF7DDFA2C80EBE7675F7265A5
:100C400063765F6C656E6774683A25642000000007
:100C5000675F726563765F627566663A25730D0A33
:100C6000200000004EF60C5CCEF2000CDCF80030E8
:100C700003F4E063B3F5E06F01D1042328E0DCF86E
:100C8000003003F4E063B3F5C06F01D103231FE02C
:100C9000DCF8003003F4E063B3F5A06F17D0DCF8A4
:100CA000003003F4E063B3F5806F01D101230FE05E
:100CB000DCF8003003F4E063B3F5407F01D100239A
:100CC00006E040F20053C0F2FA53CCF800300223A1
:100CD00001FA03FCC3F104030F21D94011404EF285
:100CE000001241EA0C01CEF20002090140EA0203BF
:100CF00083F8001300F01F01012303FA01F11C2304
:100D000003EAD0008150704740F080604EF60C51ED
:100D100040F0FD70CEF200010860704780B541F2EE
:100D2000100CC2F2000C41F212019CF80020C2F239
:100D300000010B882AB1A3F59670030408800DD139
:100D400008E003F596731FFA83FE42F210708645A1
:100D50000B8003D982F001008CF800000A884FF064
:100D60008040002100F08AFA3220BDE88040FFF781
:100D70002DBC0000F0B587B005464FF440600C462E
:100D800000F0B6F80026C4F2020630460221002226
:100D900020230027FFF784FE304600210222202373
:100DA000FFF7A8FE3046012120220126FFF738FE7A
:100DB0004FF4805000F09CF84FF0807000F0C8F8BD
:100DC0004FF0804000F07CFA681EADF80C00601E09
:100DD000059003A94FF08040CDF80E70ADF8127069
:100DE0008DF8187000F016FB6A464FF08040002125
:100DF000ADF80470ADF8006000F02AF94FF08040C3
:100E00000021002200F03AFA4FF0804000216022D9
:100E100000F018FA4FF080400021002200F034FA70
:100E20004FF0804000F00EF94FF0804000F0ECFAF7
:100E300007B0F0BD10B543F60402C4F202025368D5
:100E40000146C3F3810342F20040022BC0F2F400DA
:100E500006D0012B1FD147F64000C0F27D101AE0EA
:100E6000D2F800C013680CF03F0CC3F3881E13685F
:100E70001468C3F30143640247F64004C0F27D14D2
:100E800058BF0446B4FBFCF4022000EB430004FB13
:100E90000EF3B3FBF0F0536811A4C3F30313E35C48
:100EA000546841F6243CC4F38224C0F6000C1CF8BC
:100EB00004E05268032907D820FA03F3DFE801F0C1
:100EC0000F020609184610BD002010BD23FA0EF0CF
:100ED00010BDC2F342301CF8000023FA00F010BD30
:100EE00000000000000000000102030406070809DA
:100EF00043F6000300F01F018009C4F202034FF023
:100F0000010CC2580CFA01F11143C15070470000A6
:100F100043F6000300F01F018009C4F202034FF002
:100F2000010CC2580CFA01F122EA0101C1507047CC
:100F300043F6000300F01F018009C4F202034FF0E2
:100F4000010CC2580CFA01F11143C1507047000066
:100F500043F68C0CC4F2020CDCF800206FF08071B8
:100F600042EA0003884208BF22F08073CCF80030C8
:100F7000704700008A08032A88BF70470C2303EAE1
:100F800081010F238B4000FA01FC01EB8200D94361
:100F9000DFE802F002260E1A43F60800C4F2010050
:100FA000026811400160016841EA0C01016070476C
:100FB00043F60800C4F20100826811408160816834
:100FC00041EA0C018160704743F60800C4F2010059
:100FD000C2681140C160C16841EA0C01C16070473C
:100FE00043F60800C4F201004268114041604168C4
:100FF00041EA0C014160704740F20400C2F2000077
:10100000006844F6D351C1F26201A0FB01014FF028
:10101000FF3000EB9110B0F1807F11D24EF2100141
:10102000CEF2000148604EF62350CEF20000F022CE
:101030000270002207238A600B600270704700BFB5
:10104000FEE70000016841F0800101607047000088
:10105000032988BF704780B5DFE801F002AD418504
:10106000016A21F001010162816921F003018161BE
:101070001188036A19430162016A002321F0020109
:101080000162B2F804C0D0F820E020F48061C4F21C
:10109000010399424EEA0C01016240F0D080016ADE
:1010A00021F0040101625188036A19430162016A57
:1010B00021F008010162D188036A1943016250F8E6
:1010C000041F21F4807101601189036819430160D4
:1010D000016821F40071016051890268ADE0016A84
:1010E00021F480710162C16921F00301C16111889D
:1010F000036A43EA01210162016A002321F40071BD
:101100000162B2F804C0D0F820E020F48061C4F29B
:10111000010399424EEA0C21016240F09080016A7D
:1011200021F4806101625188036A43EA012101626E
:10113000016A21F400610162D188036A43EA012156
:10114000016250F8041F21F4805101601189036885
:1011500043EA01110160016821F4005101605289E4
:101160000168120169E0016A21F480510162C169DC
:1011700021F44071C1611188036A43EA01310162BF
:10118000016A002321F400510162B2F804C0D0F8D2
:1011900020E020F48061C4F2010399424EEA0C3150
:1011A00001624CD150F8041F21F480410160128982
:1011B0000168920141E0016A21F010010162816938
:1011C00021F4407181611188036A43EA01110162CF
:1011D000016A002321F020010162B2F804C0D0F8B6
:1011E00020E020F48061C4F2010399424EEA0C1120
:1011F000016224D1016A21F0400101625188036A31
:1012000043EA01110162016A21F080010162D18883
:10121000036A43EA0111016250F8041F21F480615E
:1012200001601189036843EA81010160016821F4CA
:101230000061016052890168920011430160BDE8BC
:1012400080407047032988BF7047DFE801F0020D36
:10125000050A50F8181F01E050F81C1F21F070011A
:1012600007E050F81C1F01E050F8181F21F4E0417E
:1012700012020160016811430160704703299CBF9D
:1012800000EB810042637047032988BF7047DFE8A5
:1012900001F0020D050A50F8181F01E050F81C1F5C
:1012A00021F0080107E050F81C1F01E050F8181F5A
:1012B00021F400611202016001681143016070476E
:1012C00010B541F6FF31C4F2000188421BDC40F644
:1012D000FF31C4F20001884230DD41F2FF31C4F237
:1012E0000001884250DC40F60041C4F2000188420F
:1012F00069D041F20001C4F20001884240F08280CE
:1013000040F6040476E040F2FF31C4F20101884265
:1013100026DD44F2FF31C4F20101884243DC40F291
:101320000041C4F20101884250D044F20001C4F2ED
:101330000101884266D14FF411645BE0B0F1804F47
:1013400047D040F20041C4F20001884244D040F648
:101350000001C4F20001884254D140F6020449E081
:1013600041F60041C4F20001884238D042F2000147
:10137000C4F20001884235D00021C4F20101884244
:1013800040D14FF4106435E041F20041C4F2000155
:1013900088422AD041F60001C4F20001884231D1CE
:1013A00040F6060426E044F20041C4F201018842FE
:1013B0001ED044F60001C4F20101884218BF10BDDE
:1013C00040F6121416E040F6030413E040F6011450
:1013D00010E04FF400640DE040F601040AE040F62E
:1013E000070407E040F6080404E040F6050401E0C5
:1013F00040F611142046FFF79BFD2046BDE8104043
:10140000FFF786BD10BD0000016841F001010160D9
:10141000704700000A8840F2004C826240F6FF32BA
:10142000C4F200029042C4F2010C0FDCB0F1804F14
:1014300019D040F20043C4F20003984213D040F6A2
:101440000003C4F2000398420DD018E040F60043B8
:10145000C4F20003984206D0604504D00023C4F2D1
:10146000010398420BD1036823F0700303604B889B
:1014700002681A4302608A8803681A43026080B5D2
:1014800041F20002D1F808E020F48063C4F20002C7
:101490009342C0F82CE007D0026822F44072026048
:1014A000CA8803681A43026040F48062624504BF40
:1014B000097B0163416941F00101416180BD000088
:1014C000C2681143C1607047C943016170470000A1
:1014D000C26800690A40084018BF0120002A18BFEE
:1014E0000122104070470000B0B5044647F2FF707B
:1014F000C4F200000D4684424FF000000EDC44F6BA
:10150000FF31C4F200018C4217DC44F20041C4F206
:1015100000018C421DD044F6000116E040F6FF7138
:10152000C4F201018C422FDC47F60001C4F2000135
:101530008C420ED047F6004107E044F60041C4F269
:1015400000018C4205D045F20001C4F200018C423A
:1015500003D102210846FFF76DFCE168090406D4B7
:1015600000EB5500B0FBF5F080B2A060B0BD4000CC
:1015700000EB5500B0FBF5F04FF6F0710140C0F301
:1015800042000844A060B0BD41F20001C4F2010174
:101590008C424FF00301DDD041F20042C4F201025F
:1015A0009442D7D0D9E7000040686FF35F207047BE
:1015B0006FF35F214160704710B547F2FF71C4F2CD
:1015C0000001884214DC44F6FF31C4F20001884275
:1015D00024DC44F20041C4F2000188423CD044F6CD
:1015E0000001C4F20001884249D140F612043EE0F5
:1015F00040F6FF71C4F2010188421EDC47F600018B
:10160000C4F2000188422AD047F60041C4F200012A
:10161000884218BF10BD40F61F0428E044F6004180
:10162000C4F2000188421DD045F20001C4F200015D
:10163000884224D140F6140419E041F20001C4F2BA
:101640000101884211D041F20041C4F201018842F7
:1016500015D140F605140AE040F6110407E040F603
:101660001E0404E040F6130401E040F60414204692
:10167000FFF75EFC2046BDE81040FFF749BC10BDF7
:10168000426901F0400122F0400242614269114387
:1016900041617047C16841F40051C160704700006A
:1016A0008A09105801F01F01C84000F0010070477E
:1016B00070B505464FF44060FFF71AFC4FF44060E8
:1016C000FFF716FC41F20410FFF712FC41F2000490
:1016D000C4F2010404F57046304607214FF400724D
:1016E000FFF79EF9304607214FF48062FFF798F923
:1016F0003046022101224FF40073FFF7D1F9304642
:10170000022101224FF48063FFF7CAF9304600211D
:1017100002224FF40073FFF7EDF930460021022258
:101720004FF48063FFF7E6F92046FFF745FF2046B8
:101730002946FFF7D9FE2046002100F03DF820465B
:10174000002100F055F82046002100F043F8204623
:10175000FFF7A0FF2046082100F044F820460421AE
:1017600000F032F8252002210222FFF77BFA204602
:101770004FF44171BDE87040AFF3008001F01F02EB
:1017800089094FF0010C0B580CFA02F21A430A5067
:1017900070470000C1F3891252F800C08A0D10583A
:1017A00001F01F03C1F30441C8402CFA03F10840C3
:1017B00000F0010070470000C26822F4C062C260FD
:1017C000C2681143C1607047C26822F0040211432D
:1017D000C1607047026922F44052026102691143FC
:1017E00001617047C26822F008021143C16070476E
:1017F000C26822F48052C260C2681143C16070475F
:101800000FB4054B10B503A9044A029800F018F86C
:1018100010BC5DF814FB0000FD090008000000206A
:1018200002E008C8121F08C1002AFAD170477047A9
:10183000002001E001C1121F002AFBD17047000007
:101840002DE9FF4F8DB09B460F460446002606E06B
:1018500025280BD05A460F999047641C761C207897
:101860000028F5D111B03046BDE8F08F0025A8461C
:101870000122984900E0054314F8013F203B02FA99
:1018800003F00842F7D120782E2817D114F8010F61
:1018900045F004052A280ED06FF02F022078A0F121
:1018A000300109290AD808EB880102EB410100EB5D
:1018B0000108641CF2E757F8048B641C20786C283C
:1018C0000DD004DC4C2812D06A2811D104E0742811
:1018D0000DD07A280CD10AE045F4001507E06178B4
:1018E00045F48015814202D1641C05F58015641C05
:1018F0002278692A45D008DC002AB3D0582A69D05A
:10190000632A10D0642A08D13BE0702A67D0732A7A
:1019100013D0752A5CD0782A5CD010465A460F99AD
:101920009047761CD3E017F8040B8DF800000020D8
:101930008DF80100E946012003E057F8049B4FF0C1
:10194000FF3069074FF0000501D40AE06D1C4545E2
:101950000DDA8542FADB19F805100029F6D106E008
:101960006D1C8542FCDB19F805100029F8D12E44C6
:1019700004E019F8010B5A460F9990476D1EF8D2F2
:10198000A5E00A200021CDE90801C5F30250022894
:101990000DD001CFC117031E71F100030DDA4FF016
:1019A000000CD0EB0C006CEB01012D2308E0FF1DB7
:1019B00027F00707F7E80201EDE72B0504D52B23F5
:1019C0008DF8283001233BE0EB0739D02023F7E7DF
:1019D0000A2000E010200021CDE9080107E01020D6
:1019E000002145F00405CDE908014FF00808C5F3D2
:1019F000025002280FD001CF00214FF0000A2B0720
:101A00001FD5702A0DD0DDE908C38CF0100C5CEAFC
:101A1000030C0CD015E0FF1D27F00707F7E80201C3
:101A2000EBE740228DF828204FF0010A0BE050EA46
:101A3000010306D030238DF828308DF829200223A9
:101A40009A46582A04D024A20DF120090B9209E0ED
:101A500026A2F9E7DDE90823FEF7D6FB0B9B9B5C8A
:101A600009F8013D50EA0102F4D1ADEB0900203044
:101A70000890680701D44FF001080899884502DDF5
:101A8000A8EB010000E000208046002506E00AA83F
:101A90005A46405D0F9990476D1C761C5545F6DB04
:101AA00004E030205A460F999047761CB8F10001A7
:101AB000A8F10108F5DC05E019F8010B5A460F9969
:101AC0009047761C0899481E08900029F4DC641C95
:101AD000C5E600000928010030313233343536378D
:101AE000383961626364656600000000303132336A
:101AF000343536373839414243444546000000000A
:101B000010B5044601E0FEF779FF14F8010B044913
:101B10000028F8D1BDE810400A20FEF76FBF000092
:101B20000000002000000000010203046B65792022
:101B300072656C65617365210D006B65792070724B
:101B4000657373210D000000681B00080000002071
:101B50000800000020180008701B00080800002082
:101B6000101400003018000800000000001C4E0E89
:04000005080001AD41
:00000001FF
